:03000000020800F3
:0C080000787FE4F6D8FD758114020847EB
:100900000608413131305600050E4135355600019B
:050910001400011300BA
:1008C900D3EF9400EE940040147D727C00ED1D700E
:0D08D900011CED4C70F7EF1F70E61E80E370
:0108E60022EF
:0B092900C29FD29ED29CD2AFD2AC2263
:0A0934008F99751401E51470FC2280
:100916001208E7FF600C120934740129F9E43AFA67
:0309260080EE223E
:10088C0012092920B5197F057E001208C920B50C64
:10089C007B007A007908120916E4F51330B5FD20B7
:1008AC00B4E17F057E001208C920B40C7B007A00ED
:0D08BC00790E120916E4F51320B4C880FB74
:10080C0002088CE493A3F8E493A34003F68001F26E
:10081C0008DFF48029E493A3F85407240CC8C333ED
:10082C00C4540F4420C8834004F456800146F6DFBC
:10083C00E4800B0102040810204080900900E47E43
:10084C00019360BCA3FF543F30E509541FFEE493B1
:10085C00A360010ECF54C025E060A840B8E493A378
:10086C00FAE493A3F8E493A3C8C582C8CAC583CAA3
:10087C00F0A3C8C582C8CAC583CADFE9DEE780BE5B
:0109150000E1
:1008E700BB010689828A83E0225002E722BBFE020F
:0908F700E32289828A83E4932242
:00000001FF
