:03000000020B13DD
:0C0B1300787FE4F6D8FD758132020B5AA1
:100DBE00504D3D202020204C202020204820202057
:100DCE000048553D202025204C202025204820205D
:020DDE002500EE
:0F0E7C0001113C011758011D0F01220A01090045
:100DE000E4FDFCC3ED9FEC9E5015E4FBFA0BBB0049
:0F0DF000010AEB64794A70F50DBD00010C80E437
:010DFF0022D1
:100E4000D3EF9400EE940040147D707C00ED1D7093
:0D0E5000011CED4C70F7EF1F70E61E80E3F3
:010E5D002272
:0F0D91008F807F057E00120DA0D2B47F057E00FB
:100DA000D3EF9400EE940040147D0A7C00ED1D709A
:0D0DB000011CED4C70F7EF1F70E61E80E394
:010DBD002213
:100E5E00120E727F2D120E187F8C120E727F481298
:040E6E000E187FCC0F
:0A0E7200C2B4C2B5120D91C2B42241
:100E00007C007D64120B9F7E007F0ACFCDCFCECCBD
:080E1000CE120B9FEF2430FF0E
:080E1800D2B5120D91C2B42203
:100CA100E4FB7F38120E727F0C120E727F06120E59
:100CB100727F01120E727F80120E72EBC394107458
:100CC100809480500CEB900DBE93FF120E180B8098
:100CD100EA7F85120E727F25120E187F8A120E721C
:100CE1007F25120E187F8F120E727F25120E187F2C
:100CF100C0120E72E4FBEBC3941074809480500C0C
:0C0D0100EB900DCF93FF120E180B80EA50
:010D0D0022C3
:100A4F008E268F278C288D297F8D120E72AE26AFA2
:100A5F00277C007D0A120E11AE26AF277C007D0A7F
:100A6F00120B9FED2430FF120E187F88120E727C2E
:100A7F00007D0AAF03AE02120E11AE02AF037C006F
:100A8F007D0A120B9FED2430FF120E187FCD120E30
:100A9F0072AE28AF29120E00AE28AF297C007D0A56
:100AAF00120B9FED2430FF120E187FC8120E72AE7C
:100ABF002CAF2D120E00AE2CAF2D7C007D0A120B29
:100ACF009FED2430FF120E187F83120E72AE2EAFE1
:100ADF002F120E00AE2EAF2F7C007D0A120B9FED52
:100AEF002430FF120E187FC3120E72AE30AF3112C8
:100AFF000E00AE30AF317C007D0A120B9FED24301B
:040B0F00FF020E18BB
:100800003090030208A43090FDC3E509940574807C
:10081000948040030208A10509E50924FE601B1429
:100820006035146040146053240470787F8C120E7D
:10083000727F2D120E187FCC800C7FCC120E727F2F
:100840002D120E187F8C120E727F48120E187F87A1
:10085000120E727F4C80077F87120E5E7F48120E49
:10086000187FC7800C7FC7120E5E7F48120E187F5C
:1008700087120E727F4C120E1880297F38120E726A
:100880007F0C120E72120E667F48120E187F8712AE
:100890000E727F4C120E187FC7120E727F4C120E12
:1008A00018E4F509309103020971E50970030209A2
:1008B000713091FDE50924FE603214605A14607CA9
:1008C000240360030209710511C3E5119463748068
:1008D000948040037511637F8D120E72E51175F0DF
:1008E0000A842430FF120E18E51180790517C3E53C
:1008F0001794647480948040037517647FCD120E42
:1009000072E51775F06484E5F075F00A842430FF11
:10091000120E18E517804E051DC3E51D945F748007
:1009200094804003751D5F7F88120E72E51D75F07F
:100930000A842430FF120E18E51D80290522C3E524
:1009400022945A74809480400375225A7FC8120EF4
:1009500072E52275F06484E5F075F00A842430FFB6
:10096000120E18E52275F00A84E5F02430FF120E0D
:1009700018309203020A3EE5097003020A3E3092E3
:10098000FDE50924FE603214605A14607C24036083
:1009900003020A3ED3E511940174809480500375DC
:1009A000110115117F8D120E72E51175F00A842464
:1009B00030FF120E18E5118079D3E5179401748089
:1009C0009480500375170115177FCD120E72E5172D
:1009D00075F06484E5F075F00A842430FF120E1877
:1009E000E517804ED3E51D94017480948050037503
:1009F0001D01151D7F88120E72E51D75F00A8424F5
:100A000030FF120E18E51D8029D3E5229401748071
:100A10009480500375220115227FC8120E72E522C0
:100A200075F06484E5F075F00A842430FF120E1826
:100A3000E52275F00A84E5F02430FF120E187F0AD3
:0F0A40007E00120DE07F38120E727F0C020E72D4
:100E2000D3EF9400EE94004016E4FDEDC3941B74E0
:0F0E300080948050030D80F3EF1F70E41E80E16B
:010E3F002290
:0C0E8C00153215321532153215321532B0
:010E98002237
:100D0E00E4FFEFC3940874809480503F750F022067
:100D1E009307AE0F050FEE70F6120E8C120E8C129C
:100D2E000E8CE4F516309303751601750F02309391
:100D3E0007AE0F050FEE70F6E50F6401600DE520AE
:0B0D4E0025E0F520E51642200F80B7DD
:010D59002277
:100C2A00C2937FB47E00120E20C2A9D293120E8CF8
:100C3A00120E8C120E8C120E8CD293209358750FB2
:100C4A0002209307AF0F050FEF70F6750F0230936E
:100C5A0007AF0F050FEF70F6120D0E85201F120D4C
:100C6A000E852021120D0E85200D120D0E85200EE7
:100C7A00120D0E852015D293D2A9E50D250E251F3A
:100C8A002521F516B5150F851F18852119850D081B
:070C9A00850E0A85151022EA
:100D5A00E4F524F5257F64FE120E40120CA17508F5
:100D6A001E75183C752C00752D04752E00752F05FF
:100D7A007530007531067B037A007D027C007F01A5
:070D8A007E00120A4F80DD1C
:100B1F00020D5AE493A3F8E493A34003F68001F285
:100B2F0008DFF48029E493A3F85407240CC8C333D7
:100B3F00C4540F4420C8834004F456800146F6DFA6
:100B4F00E4800B0102040810204080900E7CE47EAC
:100B5F00019360BCA3FF543F30E509541FFEE4939B
:100B6F00A360010ECF54C025E060A840B8E493A362
:100B7F00FAE493A3F8E493A3C8C582C8CAC583CA8D
:100B8F00F0A3C8C582C8CAC583CADFE9DEE780BE45
:010E8B000066
:100B9F00C2D5EC30E709B2D5E4C39DFDE49CFCEE71
:100BAF0030E715B2D5E4C39FFFE49EFE120BD5C309
:100BBF00E49DFDE49CFC8003120BD530D507C3E404
:060BCF009FFFE49EFE22E0
:100BD500BC000BBE0029EF8DF084FFADF022E4CC04
:100BE500F875F008EF2FFFEE33FEEC33FCEE9DECCD
:100BF500984005FCEE9DFE0FD5F0E9E4CEFD22ED13
:100C0500F8F5F0EE8420D21CFEADF075F008EF2F5C
:100C1500FFED33FD4007985006D5F0F222C398FD4D
:050C25000FD5F0EA22EA
:00000001FF
