:100915000608413232305600060E4131313056005C
:0709250005144135355600B1
:04092D007F327E0097
:0B093100EF1FAC0670011E4C70F62298
:0F093C00759850758920758DFD758BFDD28E22B3
:08094B008F993099FDC2992239
:1008D7008B198A1A891BAB19AA1AA91B1208FC6063
:1008E70013051BE51B7002051A14F91208FCFF1209
:0508F700094B80E22224
:10088C0012093C20B51212092D20B5097B007A0003
:10089C0079081208D730B5FD20B41212092D20B4F6
:1008AC00097B007A00790E1208D730B4FD20B31200
:1008BC0012092D20B3097B007A0079141208D73065
:0B08CC00B3FD7F207E4E12093180B882
:03000000020800F3
:0C080000787FE4F6D8FD75811B020847E4
:1008FC00BB010689828A83E0225002E722BBFE02FA
:09090C00E32289828A83E493222C
:10080C0002088CE493A3F8E493A34003F68001F26E
:10081C0008DFF48029E493A3F85407240CC8C333ED
:10082C00C4540F4420C8834004F456800146F6DFBC
:10083C00E4800B0102040810204080900915E47E2E
:10084C00019360BCA3FF543F30E509541FFEE493B1
:10085C00A360010ECF54C025E060A840B8E493A378
:10086C00FAE493A3F8E493A3C8C582C8CAC583CAA3
:10087C00F0A3C8C582C8CAC583CADFE9DEE780BE5B
:01092C0000CA
:00000001FF
